{
  "_format": "hh-sol-artifact-1",
  "contractName": "PatientDetails",
  "sourceName": "src/contracts/Lock.sol",
  "abi": [
    {
      "inputs": [],
      "stateMutability": "nonpayable",
      "type": "constructor"
    },
    {
      "inputs": [
        {
          "internalType": "address",
          "name": "_walletAddress",
          "type": "address"
        }
      ],
      "name": "AddDoctorAccess",
      "outputs": [],
      "stateMutability": "nonpayable",
      "type": "function"
    },
    {
      "inputs": [
        {
          "internalType": "string",
          "name": "_name",
          "type": "string"
        },
        {
          "internalType": "address",
          "name": "_walletAddress",
          "type": "address"
        },
        {
          "internalType": "string",
          "name": "_dateOfBirth",
          "type": "string"
        },
        {
          "internalType": "uint256",
          "name": "_age",
          "type": "uint256"
        },
        {
          "internalType": "uint256",
          "name": "_phoneNumber",
          "type": "uint256"
        },
        {
          "internalType": "string",
          "name": "_email",
          "type": "string"
        }
      ],
      "name": "AddDoctorPersonalInfo",
      "outputs": [],
      "stateMutability": "nonpayable",
      "type": "function"
    },
    {
      "inputs": [
        {
          "internalType": "address",
          "name": "_walletAddress",
          "type": "address"
        },
        {
          "internalType": "string",
          "name": "_MedicalLicenseNumber",
          "type": "string"
        },
        {
          "internalType": "string",
          "name": "_Specialization",
          "type": "string"
        },
        {
          "internalType": "uint256",
          "name": "_ExperienceInYear",
          "type": "uint256"
        },
        {
          "internalType": "string",
          "name": "_MedicalSchoolAttended",
          "type": "string"
        }
      ],
      "name": "AddDoctorProfessionalInfo",
      "outputs": [],
      "stateMutability": "nonpayable",
      "type": "function"
    },
    {
      "inputs": [
        {
          "internalType": "string",
          "name": "_date",
          "type": "string"
        },
        {
          "internalType": "address",
          "name": "_walletAddress",
          "type": "address"
        },
        {
          "internalType": "bool",
          "name": "_isAlcoholic",
          "type": "bool"
        },
        {
          "internalType": "bool",
          "name": "_isSmoker",
          "type": "bool"
        },
        {
          "internalType": "bool",
          "name": "_isSmokelessTobaccoUser",
          "type": "bool"
        },
        {
          "internalType": "string",
          "name": "_surgicalHistory_ifAny",
          "type": "string"
        },
        {
          "internalType": "string",
          "name": "_physicalActivityLevel",
          "type": "string"
        },
        {
          "internalType": "string",
          "name": "_pastMedicationDetails_IfAny",
          "type": "string"
        }
      ],
      "name": "AddPatientsMedicalDetails",
      "outputs": [],
      "stateMutability": "nonpayable",
      "type": "function"
    },
    {
      "inputs": [
        {
          "internalType": "string",
          "name": "date",
          "type": "string"
        },
        {
          "internalType": "string",
          "name": "_name",
          "type": "string"
        },
        {
          "internalType": "address",
          "name": "_walletAddress",
          "type": "address"
        },
        {
          "internalType": "string",
          "name": "_gender",
          "type": "string"
        },
        {
          "internalType": "string",
          "name": "_Occupation",
          "type": "string"
        },
        {
          "internalType": "string",
          "name": "_dateOfBirth",
          "type": "string"
        },
        {
          "internalType": "uint256",
          "name": "_age",
          "type": "uint256"
        },
        {
          "internalType": "uint256",
          "name": "number",
          "type": "uint256"
        },
        {
          "internalType": "string",
          "name": "_bloodGrp",
          "type": "string"
        },
        {
          "internalType": "uint256",
          "name": "_height",
          "type": "uint256"
        },
        {
          "internalType": "uint256",
          "name": "_weight",
          "type": "uint256"
        }
      ],
      "name": "AddPatientsPersonalDetails",
      "outputs": [],
      "stateMutability": "nonpayable",
      "type": "function"
    },
    {
      "inputs": [
        {
          "internalType": "address",
          "name": "_walletAddress",
          "type": "address"
        }
      ],
      "name": "DeleteDoctorAccess",
      "outputs": [],
      "stateMutability": "nonpayable",
      "type": "function"
    },
    {
      "inputs": [
        {
          "internalType": "address",
          "name": "",
          "type": "address"
        }
      ],
      "name": "DoctorAccess",
      "outputs": [
        {
          "internalType": "bool",
          "name": "",
          "type": "bool"
        }
      ],
      "stateMutability": "view",
      "type": "function"
    },
    {
      "inputs": [
        {
          "internalType": "address",
          "name": "",
          "type": "address"
        }
      ],
      "name": "DoctorsPersonalInfo",
      "outputs": [
        {
          "internalType": "string",
          "name": "name",
          "type": "string"
        },
        {
          "internalType": "address",
          "name": "walletAddress",
          "type": "address"
        },
        {
          "internalType": "string",
          "name": "dateOfBirth",
          "type": "string"
        },
        {
          "internalType": "uint256",
          "name": "age",
          "type": "uint256"
        },
        {
          "internalType": "uint256",
          "name": "phoneNumber",
          "type": "uint256"
        },
        {
          "internalType": "string",
          "name": "email",
          "type": "string"
        }
      ],
      "stateMutability": "view",
      "type": "function"
    },
    {
      "inputs": [
        {
          "internalType": "address",
          "name": "",
          "type": "address"
        }
      ],
      "name": "Doctors_ProfessionalDetails",
      "outputs": [
        {
          "internalType": "address",
          "name": "walletAddress",
          "type": "address"
        },
        {
          "internalType": "string",
          "name": "MedicalSchoolAttended",
          "type": "string"
        },
        {
          "internalType": "string",
          "name": "MedicalLicenseNumber",
          "type": "string"
        },
        {
          "internalType": "string",
          "name": "Specialization",
          "type": "string"
        },
        {
          "internalType": "uint256",
          "name": "ExperienceInYear",
          "type": "uint256"
        }
      ],
      "stateMutability": "view",
      "type": "function"
    },
    {
      "inputs": [
        {
          "internalType": "string",
          "name": "_name",
          "type": "string"
        },
        {
          "internalType": "address",
          "name": "_walletAddress",
          "type": "address"
        },
        {
          "internalType": "string",
          "name": "_dateOfBirth",
          "type": "string"
        },
        {
          "internalType": "uint256",
          "name": "_age",
          "type": "uint256"
        },
        {
          "internalType": "uint256",
          "name": "_phoneNumber",
          "type": "uint256"
        },
        {
          "internalType": "string",
          "name": "_email",
          "type": "string"
        }
      ],
      "name": "EditDoctorPersonalDetails",
      "outputs": [],
      "stateMutability": "nonpayable",
      "type": "function"
    },
    {
      "inputs": [
        {
          "internalType": "address",
          "name": "_walletAddress",
          "type": "address"
        },
        {
          "internalType": "string",
          "name": "_MedicalLicenseNumber",
          "type": "string"
        },
        {
          "internalType": "string",
          "name": "_Specialization",
          "type": "string"
        },
        {
          "internalType": "uint256",
          "name": "_ExperienceInYear",
          "type": "uint256"
        },
        {
          "internalType": "string",
          "name": "_MedicalSchoolAttended",
          "type": "string"
        }
      ],
      "name": "EditDoctorProfessionalDetails",
      "outputs": [],
      "stateMutability": "nonpayable",
      "type": "function"
    },
    {
      "inputs": [
        {
          "internalType": "string",
          "name": "_date",
          "type": "string"
        },
        {
          "internalType": "string",
          "name": "_name",
          "type": "string"
        },
        {
          "internalType": "address",
          "name": "_walletAddress",
          "type": "address"
        },
        {
          "internalType": "string",
          "name": "_gender",
          "type": "string"
        },
        {
          "internalType": "string",
          "name": "_Occupation",
          "type": "string"
        },
        {
          "internalType": "string",
          "name": "_dateOfBirth",
          "type": "string"
        },
        {
          "internalType": "uint256",
          "name": "_age",
          "type": "uint256"
        },
        {
          "internalType": "uint256",
          "name": "number",
          "type": "uint256"
        },
        {
          "internalType": "string",
          "name": "_bloodGrp",
          "type": "string"
        },
        {
          "internalType": "uint256",
          "name": "_height",
          "type": "uint256"
        },
        {
          "internalType": "uint256",
          "name": "_weight",
          "type": "uint256"
        }
      ],
      "name": "EditPatientPersonalDetails",
      "outputs": [],
      "stateMutability": "nonpayable",
      "type": "function"
    },
    {
      "inputs": [
        {
          "internalType": "string",
          "name": "_date",
          "type": "string"
        },
        {
          "internalType": "address",
          "name": "_walletAddress",
          "type": "address"
        },
        {
          "internalType": "bool",
          "name": "_isAlcoholic",
          "type": "bool"
        },
        {
          "internalType": "bool",
          "name": "_isSmoker",
          "type": "bool"
        },
        {
          "internalType": "bool",
          "name": "_isSmokelessTobaccoUser",
          "type": "bool"
        },
        {
          "internalType": "string",
          "name": "_surgicalHistory_ifAny",
          "type": "string"
        },
        {
          "internalType": "string",
          "name": "_physicalActivityLevel",
          "type": "string"
        },
        {
          "internalType": "string",
          "name": "_pastMedicationDetails_IfAny",
          "type": "string"
        }
      ],
      "name": "EditPatinetMedicalDetails",
      "outputs": [],
      "stateMutability": "nonpayable",
      "type": "function"
    },
    {
      "inputs": [
        {
          "internalType": "address",
          "name": "",
          "type": "address"
        },
        {
          "internalType": "uint256",
          "name": "",
          "type": "uint256"
        }
      ],
      "name": "HealthCondition",
      "outputs": [
        {
          "internalType": "string",
          "name": "healthIssue",
          "type": "string"
        },
        {
          "internalType": "string",
          "name": "date",
          "type": "string"
        },
        {
          "internalType": "address",
          "name": "walletAddress",
          "type": "address"
        },
        {
          "internalType": "address",
          "name": "physician",
          "type": "address"
        },
        {
          "internalType": "string",
          "name": "Department_uint",
          "type": "string"
        },
        {
          "internalType": "string",
          "name": "BloodPressure",
          "type": "string"
        },
        {
          "internalType": "string",
          "name": "HeartRate",
          "type": "string"
        },
        {
          "internalType": "string",
          "name": "GlucoseLevel",
          "type": "string"
        },
        {
          "internalType": "string",
          "name": "bodyTemperature",
          "type": "string"
        },
        {
          "internalType": "string",
          "name": "checkupDescription",
          "type": "string"
        },
        {
          "internalType": "string",
          "name": "medicinesPrescribed",
          "type": "string"
        }
      ],
      "stateMutability": "view",
      "type": "function"
    },
    {
      "inputs": [
        {
          "internalType": "address",
          "name": "",
          "type": "address"
        }
      ],
      "name": "PatientsMedicalDetails",
      "outputs": [
        {
          "internalType": "string",
          "name": "date",
          "type": "string"
        },
        {
          "internalType": "address",
          "name": "walletAddress",
          "type": "address"
        },
        {
          "internalType": "bool",
          "name": "isAlcoholic",
          "type": "bool"
        },
        {
          "internalType": "bool",
          "name": "isSmoker",
          "type": "bool"
        },
        {
          "internalType": "bool",
          "name": "isSmokelessTobaccoUser",
          "type": "bool"
        },
        {
          "internalType": "string",
          "name": "surgicalHistory_ifAny",
          "type": "string"
        },
        {
          "internalType": "string",
          "name": "physicalActivityLevel",
          "type": "string"
        },
        {
          "internalType": "string",
          "name": "pastMedicationDetails_IfAny",
          "type": "string"
        }
      ],
      "stateMutability": "view",
      "type": "function"
    },
    {
      "inputs": [
        {
          "internalType": "address",
          "name": "",
          "type": "address"
        }
      ],
      "name": "PatientsPersonalDetails",
      "outputs": [
        {
          "internalType": "string",
          "name": "date",
          "type": "string"
        },
        {
          "internalType": "string",
          "name": "name",
          "type": "string"
        },
        {
          "internalType": "address",
          "name": "walletAddress",
          "type": "address"
        },
        {
          "internalType": "string",
          "name": "gender",
          "type": "string"
        },
        {
          "internalType": "string",
          "name": "Occupation",
          "type": "string"
        },
        {
          "internalType": "string",
          "name": "dateOfBirth",
          "type": "string"
        },
        {
          "internalType": "uint256",
          "name": "age",
          "type": "uint256"
        },
        {
          "internalType": "uint256",
          "name": "phoneNumber",
          "type": "uint256"
        },
        {
          "internalType": "string",
          "name": "bloodGroup",
          "type": "string"
        },
        {
          "internalType": "uint256",
          "name": "height",
          "type": "uint256"
        },
        {
          "internalType": "uint256",
          "name": "weight",
          "type": "uint256"
        }
      ],
      "stateMutability": "view",
      "type": "function"
    },
    {
      "inputs": [
        {
          "internalType": "string",
          "name": "_dataURL",
          "type": "string"
        },
        {
          "internalType": "address",
          "name": "user",
          "type": "address"
        },
        {
          "internalType": "string",
          "name": "_fileName",
          "type": "string"
        }
      ],
      "name": "StorePatientData",
      "outputs": [],
      "stateMutability": "nonpayable",
      "type": "function"
    },
    {
      "inputs": [
        {
          "internalType": "address",
          "name": "_address",
          "type": "address"
        }
      ],
      "name": "addOwner",
      "outputs": [],
      "stateMutability": "nonpayable",
      "type": "function"
    },
    {
      "inputs": [
        {
          "internalType": "string",
          "name": "_healthIssue",
          "type": "string"
        },
        {
          "internalType": "string",
          "name": "_date",
          "type": "string"
        },
        {
          "internalType": "address",
          "name": "_walletAddress",
          "type": "address"
        },
        {
          "internalType": "address",
          "name": "_physician",
          "type": "address"
        },
        {
          "internalType": "string",
          "name": "_Department_uint",
          "type": "string"
        },
        {
          "internalType": "string",
          "name": "_BloodPressure",
          "type": "string"
        },
        {
          "internalType": "string",
          "name": "_HeartRate",
          "type": "string"
        },
        {
          "internalType": "string",
          "name": "_glucoseLevel",
          "type": "string"
        },
        {
          "internalType": "string",
          "name": "_bodyTemperature",
          "type": "string"
        },
        {
          "internalType": "string",
          "name": "_checkupDescription",
          "type": "string"
        },
        {
          "internalType": "string",
          "name": "_medicinesPrescribed",
          "type": "string"
        }
      ],
      "name": "addPatientHealthDetails",
      "outputs": [],
      "stateMutability": "nonpayable",
      "type": "function"
    },
    {
      "inputs": [
        {
          "internalType": "uint256",
          "name": "_yearOfBirth",
          "type": "uint256"
        }
      ],
      "name": "getAge",
      "outputs": [
        {
          "internalType": "uint256",
          "name": "",
          "type": "uint256"
        }
      ],
      "stateMutability": "view",
      "type": "function"
    },
    {
      "inputs": [
        {
          "internalType": "address",
          "name": "_walletAddress",
          "type": "address"
        }
      ],
      "name": "getDoctorPersonalDetails",
      "outputs": [
        {
          "components": [
            {
              "internalType": "string",
              "name": "name",
              "type": "string"
            },
            {
              "internalType": "address",
              "name": "walletAddress",
              "type": "address"
            },
            {
              "internalType": "string",
              "name": "dateOfBirth",
              "type": "string"
            },
            {
              "internalType": "uint256",
              "name": "age",
              "type": "uint256"
            },
            {
              "internalType": "uint256",
              "name": "phoneNumber",
              "type": "uint256"
            },
            {
              "internalType": "string",
              "name": "email",
              "type": "string"
            }
          ],
          "internalType": "struct PatientDetails.DoctorPersonalInfo",
          "name": "",
          "type": "tuple"
        }
      ],
      "stateMutability": "view",
      "type": "function"
    },
    {
      "inputs": [
        {
          "internalType": "address",
          "name": "_walletAddress",
          "type": "address"
        }
      ],
      "name": "getDoctorProfessionalDetails",
      "outputs": [
        {
          "components": [
            {
              "internalType": "address",
              "name": "walletAddress",
              "type": "address"
            },
            {
              "internalType": "string",
              "name": "MedicalSchoolAttended",
              "type": "string"
            },
            {
              "internalType": "string",
              "name": "MedicalLicenseNumber",
              "type": "string"
            },
            {
              "internalType": "string",
              "name": "Specialization",
              "type": "string"
            },
            {
              "internalType": "uint256",
              "name": "ExperienceInYear",
              "type": "uint256"
            }
          ],
          "internalType": "struct PatientDetails.DoctorProfessionalDetails",
          "name": "",
          "type": "tuple"
        }
      ],
      "stateMutability": "view",
      "type": "function"
    },
    {
      "inputs": [
        {
          "internalType": "address",
          "name": "_walletAddress",
          "type": "address"
        }
      ],
      "name": "getPatientDetails",
      "outputs": [
        {
          "components": [
            {
              "internalType": "string",
              "name": "date",
              "type": "string"
            },
            {
              "internalType": "string",
              "name": "name",
              "type": "string"
            },
            {
              "internalType": "address",
              "name": "walletAddress",
              "type": "address"
            },
            {
              "internalType": "string",
              "name": "gender",
              "type": "string"
            },
            {
              "internalType": "string",
              "name": "Occupation",
              "type": "string"
            },
            {
              "internalType": "string",
              "name": "dateOfBirth",
              "type": "string"
            },
            {
              "internalType": "uint256",
              "name": "age",
              "type": "uint256"
            },
            {
              "internalType": "uint256",
              "name": "phoneNumber",
              "type": "uint256"
            },
            {
              "internalType": "string",
              "name": "bloodGroup",
              "type": "string"
            },
            {
              "internalType": "uint256",
              "name": "height",
              "type": "uint256"
            },
            {
              "internalType": "uint256",
              "name": "weight",
              "type": "uint256"
            }
          ],
          "internalType": "struct PatientDetails.PatientPersonalDetails",
          "name": "",
          "type": "tuple"
        },
        {
          "components": [
            {
              "internalType": "string",
              "name": "date",
              "type": "string"
            },
            {
              "internalType": "address",
              "name": "walletAddress",
              "type": "address"
            },
            {
              "internalType": "bool",
              "name": "isAlcoholic",
              "type": "bool"
            },
            {
              "internalType": "bool",
              "name": "isSmoker",
              "type": "bool"
            },
            {
              "internalType": "bool",
              "name": "isSmokelessTobaccoUser",
              "type": "bool"
            },
            {
              "internalType": "string",
              "name": "surgicalHistory_ifAny",
              "type": "string"
            },
            {
              "internalType": "string",
              "name": "physicalActivityLevel",
              "type": "string"
            },
            {
              "internalType": "string",
              "name": "pastMedicationDetails_IfAny",
              "type": "string"
            }
          ],
          "internalType": "struct PatientDetails.PatientMedicalDetails",
          "name": "",
          "type": "tuple"
        }
      ],
      "stateMutability": "view",
      "type": "function"
    },
    {
      "inputs": [
        {
          "internalType": "address",
          "name": "_walletAddress",
          "type": "address"
        }
      ],
      "name": "getPatientHealthDetails",
      "outputs": [
        {
          "components": [
            {
              "internalType": "string",
              "name": "healthIssue",
              "type": "string"
            },
            {
              "internalType": "string",
              "name": "date",
              "type": "string"
            },
            {
              "internalType": "address",
              "name": "walletAddress",
              "type": "address"
            },
            {
              "internalType": "address",
              "name": "physician",
              "type": "address"
            },
            {
              "internalType": "string",
              "name": "Department_uint",
              "type": "string"
            },
            {
              "internalType": "string",
              "name": "BloodPressure",
              "type": "string"
            },
            {
              "internalType": "string",
              "name": "HeartRate",
              "type": "string"
            },
            {
              "internalType": "string",
              "name": "GlucoseLevel",
              "type": "string"
            },
            {
              "internalType": "string",
              "name": "bodyTemperature",
              "type": "string"
            },
            {
              "internalType": "string",
              "name": "checkupDescription",
              "type": "string"
            },
            {
              "internalType": "string",
              "name": "medicinesPrescribed",
              "type": "string"
            }
          ],
          "internalType": "struct PatientDetails.PatientHealthCondition[]",
          "name": "",
          "type": "tuple[]"
        }
      ],
      "stateMutability": "view",
      "type": "function"
    },
    {
      "inputs": [
        {
          "internalType": "address",
          "name": "_address",
          "type": "address"
        }
      ],
      "name": "getPatientStored",
      "outputs": [
        {
          "components": [
            {
              "internalType": "uint256",
              "name": "timestamp",
              "type": "uint256"
            },
            {
              "internalType": "string",
              "name": "cid",
              "type": "string"
            },
            {
              "internalType": "string",
              "name": "fileName",
              "type": "string"
            }
          ],
          "internalType": "struct PatientDetails.HealthData[]",
          "name": "",
          "type": "tuple[]"
        }
      ],
      "stateMutability": "view",
      "type": "function"
    },
    {
      "inputs": [
        {
          "internalType": "uint256",
          "name": "timestamp",
          "type": "uint256"
        }
      ],
      "name": "getYear",
      "outputs": [
        {
          "internalType": "uint256",
          "name": "",
          "type": "uint256"
        }
      ],
      "stateMutability": "pure",
      "type": "function"
    },
    {
      "inputs": [
        {
          "internalType": "address",
          "name": "_address",
          "type": "address"
        }
      ],
      "name": "isDoctor",
      "outputs": [
        {
          "internalType": "bool",
          "name": "val",
          "type": "bool"
        }
      ],
      "stateMutability": "view",
      "type": "function"
    },
    {
      "inputs": [
        {
          "internalType": "address",
          "name": "_address",
          "type": "address"
        }
      ],
      "name": "isOwner",
      "outputs": [
        {
          "internalType": "bool",
          "name": "val",
          "type": "bool"
        }
      ],
      "stateMutability": "view",
      "type": "function"
    },
    {
      "inputs": [
        {
          "internalType": "address",
          "name": "_address",
          "type": "address"
        }
      ],
      "name": "isPatient",
      "outputs": [
        {
          "internalType": "bool",
          "name": "",
          "type": "bool"
        }
      ],
      "stateMutability": "view",
      "type": "function"
    },
    {
      "inputs": [
        {
          "internalType": "address",
          "name": "",
          "type": "address"
        }
      ],
      "name": "owner",
      "outputs": [
        {
          "internalType": "bool",
          "name": "",
          "type": "bool"
        }
      ],
      "stateMutability": "view",
      "type": "function"
    },
    {
      "inputs": [
        {
          "internalType": "address",
          "name": "",
          "type": "address"
        },
        {
          "internalType": "uint256",
          "name": "",
          "type": "uint256"
        }
      ],
      "name": "patientsStoredData",
      "outputs": [
        {
          "internalType": "uint256",
          "name": "timestamp",
          "type": "uint256"
        },
        {
          "internalType": "string",
          "name": "cid",
          "type": "string"
        },
        {
          "internalType": "string",
          "name": "fileName",
          "type": "string"
        }
      ],
      "stateMutability": "view",
      "type": "function"
    },
    {
      "inputs": [
        {
          "internalType": "address",
          "name": "_address",
          "type": "address"
        }
      ],
      "name": "removeOwner",
      "outputs": [],
      "stateMutability": "nonpayable",
      "type": "function"
    },
    {
      "inputs": [],
      "name": "superOwner",
      "outputs": [
        {
          "internalType": "address",
          "name": "",
          "type": "address"
        }
      ],
      "stateMutability": "view",
      "type": "function"
    },
    {
      "inputs": [],
      "name": "totalAdmin",
      "outputs": [
        {
          "internalType": "uint256",
          "name": "",
          "type": "uint256"
        }
      ],
      "stateMutability": "view",
      "type": "function"
    },
    {
      "inputs": [],
      "name": "totalDoctors",
      "outputs": [
        {
          "internalType": "uint256",
          "name": "",
          "type": "uint256"
        }
      ],
      "stateMutability": "view",
      "type": "function"
    },
    {
      "inputs": [],
      "name": "totalPatient",
      "outputs": [
        {
          "internalType": "uint256",
          "name": "",
          "type": "uint256"
        }
      ],
      "stateMutability": "view",
      "type": "function"
    }
  ],
  "bytecode": "0x608060405234801561001057600080fd5b50336000818152602081905260409020805460ff1916600190811790915580546001600160a01b0319169091179055615bed806200004f6000396000f3fe608060405234801561001057600080fd5b506004361061021c5760003560e01c806375c6a96c11610125578063a96a6b21116100ad578063ccf0c1b51161007c578063ccf0c1b51461051d578063efe2ccc114610530578063f243cc6a14610551578063f7e901d314610578578063fe0c2a311461059857600080fd5b8063a96a6b2114610496578063b5f63ec5146104b6578063bb7d6b67146104d6578063bbcaa637146104f957600080fd5b806392c2808f116100f457806392c2808f1461044157806392d663131461044a578063996440c61461045d5780639cd3f9a414610470578063a49b17251461048357600080fd5b806375c6a96c146103cb57806387dcd2b6146103f05780638f9c79ed1461041b57806392b3141d1461042e57600080fd5b806348e64d80116101a8578063666e1b3911610177578063666e1b391461034d57806366adec5614610370578063686e1f1b146103835780636e2c0ffe146103965780637065cb48146103b857600080fd5b806348e64d801461030857806355d2df121461031b57806364319e331461033b57806365b44d7e1461034457600080fd5b80631a757712116101ef5780631a757712146102825780631f650cc9146102955780631f6d15fc146102bf5780632f54bf6e146102d257806334a9e6eb146102f557600080fd5b806304028017146102215780630e37008a14610236578063163972a31461025c578063173825d91461026f575b600080fd5b61023461022f3660046147a2565b6105c2565b005b6102496102443660046147bd565b61072f565b6040519081526020015b60405180910390f35b61023461026a366004614879565b6107af565b61023461027d3660046147a2565b610bb3565b610234610290366004614a0c565b610c2e565b6102a86102a33660046147a2565b610dba565b6040516102539b9a99989796959493929190614afd565b6102346102cd366004614bae565b61114b565b6102e56102e03660046147a2565b6111c8565b6040519015158152602001610253565b610234610303366004614c32565b6111f6565b610234610316366004614d22565b6113c8565b61032e6103293660046147a2565b611567565b6040516102539190614dc5565b610249600a5481565b61024960095481565b6102e561035b3660046147a2565b60006020819052908152604090205460ff1681565b61023461037e366004614c32565b61170a565b6102346103913660046147a2565b611980565b6103a96103a4366004614e56565b611b24565b60405161025393929190614e80565b6102346103c63660046147a2565b611c7b565b6103de6103d93660046147a2565b611cf9565b60405161025396959493929190614eb5565b600154610403906001600160a01b031681565b6040516001600160a01b039091168152602001610253565b6102e56104293660046147a2565b611ed4565b61023461043c366004614d22565b611f23565b610249600b5481565b6102496104583660046147bd565b612160565b6102e561046b3660046147a2565b612170565b61023461047e366004614f16565b612199565b610234610491366004614a0c565b61246a565b6104a96104a43660046147a2565b612684565b604051610253919061504c565b6104c96104c43660046147a2565b612977565b60405161025391906150d3565b6102e56104e43660046147a2565b60066020526000908152604090205460ff1681565b61050c6105073660046147a2565b612fcf565b60405161025395949392919061523b565b61023461052b366004614f16565b6131a0565b61054361053e3660046147a2565b6133cb565b604051610253929190615353565b61056461055f3660046147a2565b613ce8565b60405161025398979695949392919061546b565b61058b6105863660046147a2565b613f61565b60405161025391906154f1565b6105ab6105a6366004614e56565b61423a565b6040516102539b9a99989796959493929190615572565b3360009081526020819052604090205460ff16806105ea57506001546001600160a01b031633145b61060f5760405162461bcd60e51b815260040161060690615659565b60405180910390fd5b336000908152602081905260409020805460ff191660011790556001600160a01b0381166106715760405162461bcd60e51b815260206004820152600f60248201526e496e76616c6964204164647265737360881b6044820152606401610606565b6001600160a01b03811660009081526006602052604090205460ff1661070e5760405162461bcd60e51b815260206004820152604660248201527f50726f76696465642061646472657373206d75737420626520616e2041646d6960448201527f6e4163636573734164647265737320746f2072656d6f76652041646d696e416360648201526563657373212160d01b608482015260a401610606565b6001600160a01b03166000908152600660205260409020805460ff19169055565b60008061073b42612160565b905060008361074c836107b26156b9565b61075691906156cc565b9050600081116107a85760405162461bcd60e51b815260206004820152601860248201527f456e74657220636f7272656374206269727468207965617200000000000000006044820152606401610606565b9392505050565b3360009081526006602052604081205460ff16156107cb575060015b3360009081526006602052604090205460ff166107fa5760405162461bcd60e51b8152600401610606906156df565b6001600160a01b03808b166000818152600260208190526040909120015490911614801561084557506001600160a01b03808b16600081815260036020526040902060010154909116145b6109295760405162461bcd60e51b815260206004820152609960248201527f496e636f72726563742050617469656e742077616c6c6574206164647265737360448201527f206f72205468652050617469656e742064657461696c2073706563696669632060648201527f746f20706572736f6e616c206f722070617374206d65646963616c206869737460848201527f6f7279206f662074686520616464726573732070726f7669646564206e6f742060a48201527f617661696c61626c6520696e2074686520636861696e2121200000000000000060c482015260e401610606565b6001600160a01b03808a16600081815260076020526040902060010154909116146109fc5760405162461bcd60e51b815260206004820152607160248201527f496e636f72726563742050687973696369616e2077616c6c657420616464726560448201527f7373206f72205468652050687973696369616e2064657461696c20666f72207460648201527f686520616464726573732070726f7669646564206e6f7420617661696c61626c6084820152700329034b7103a34329031b430b4b710909607d1b60a482015260c401610606565b600460008b6001600160a01b03166001600160a01b031681526020019081526020016000206040518061016001604052808e81526020018d81526020018c6001600160a01b031681526020018b6001600160a01b031681526020018a81526020018981526020018881526020018781526020018681526020018581526020018481525090806001815401808255809150506001900390600052602060002090600b02016000909190919091506000820151816000019081610abd91906157d0565b5060208201516001820190610ad290826157d0565b5060408201516002820180546001600160a01b039283166001600160a01b031991821617909155606084015160038401805491909316911617905560808201516004820190610b2190826157d0565b5060a08201516005820190610b3690826157d0565b5060c08201516006820190610b4b90826157d0565b5060e08201516007820190610b6090826157d0565b506101008201516008820190610b7690826157d0565b506101208201516009820190610b8c90826157d0565b50610140820151600a820190610ba290826157d0565b505050505050505050505050505050565b6001546001600160a01b03163314610c0d5760405162461bcd60e51b815260206004820152601f60248201527f41636365737365626c65206f6e6c7920666f722053757065724f776e657273006044820152606401610606565b6001600160a01b03166000908152602081905260409020805460ff19169055565b3360009081526020819052604090205460ff1680610c5657506001546001600160a01b031633145b610c725760405162461bcd60e51b815260040161060690615659565b6001600160a01b03851615801590610c8b575060008151115b8015610c98575060008651115b610cb45760405162461bcd60e51b815260040161060690615890565b6001600160a01b0380861660008181526007602052604090206001015490911614610cf15760405162461bcd60e51b8152600401610606906158df565b6040805160c0810182528781526001600160a01b0387166020808301829052828401889052606083018790526080830186905260a08301859052600091825260079052919091208151859291908190610d4a90826157d0565b5060208201516001820180546001600160a01b0319166001600160a01b0390921691909117905560408201516002820190610d8590826157d0565b50606082015160038201556080820151600482015560a08201516005820190610dae90826157d0565b50505050505050505050565b600260205260009081526040902080548190610dd590615747565b80601f0160208091040260200160405190810160405280929190818152602001828054610e0190615747565b8015610e4e5780601f10610e2357610100808354040283529160200191610e4e565b820191906000526020600020905b815481529060010190602001808311610e3157829003601f168201915b505050505090806001018054610e6390615747565b80601f0160208091040260200160405190810160405280929190818152602001828054610e8f90615747565b8015610edc5780601f10610eb157610100808354040283529160200191610edc565b820191906000526020600020905b815481529060010190602001808311610ebf57829003601f168201915b505050600284015460038501805494956001600160a01b03909216949193509150610f0690615747565b80601f0160208091040260200160405190810160405280929190818152602001828054610f3290615747565b8015610f7f5780601f10610f5457610100808354040283529160200191610f7f565b820191906000526020600020905b815481529060010190602001808311610f6257829003601f168201915b505050505090806004018054610f9490615747565b80601f0160208091040260200160405190810160405280929190818152602001828054610fc090615747565b801561100d5780601f10610fe25761010080835404028352916020019161100d565b820191906000526020600020905b815481529060010190602001808311610ff057829003601f168201915b50505050509080600501805461102290615747565b80601f016020809104026020016040519081016040528092919081815260200182805461104e90615747565b801561109b5780601f106110705761010080835404028352916020019161109b565b820191906000526020600020905b81548152906001019060200180831161107e57829003601f168201915b5050505050908060060154908060070154908060080180546110bc90615747565b80601f01602080910402602001604051908101604052809291908181526020018280546110e890615747565b80156111355780601f1061110a57610100808354040283529160200191611135565b820191906000526020600020905b81548152906001019060200180831161111857829003601f168201915b50505050509080600901549080600a015490508b565b6040805160608101825242815260208082018681528284018590526001600160a01b0386166000908152600583529384208054600181810183559186529290942083516003909302019182555191928392908201906111aa90826157d0565b50604082015160028201906111bf90826157d0565b50505050505050565b6001600160a01b03811660009081526020819052604081205460ff16156111f157506001919050565b919050565b3360009081526006602052604081205460ff1615611212575060015b3360009081526006602052604090205460ff166112415760405162461bcd60e51b8152600401610606906156df565b6001600160a01b0388166112675760405162461bcd60e51b815260040161060690615977565b6001600160a01b0380891660008181526002602081905260409091200154909116146112a55760405162461bcd60e51b8152600401610606906159bd565b60408051610100810182528a81526001600160a01b038a1660208083018290528a1515838501528915156060840152881515608084015260a0830188905260c0830187905260e08301869052600091825260039052919091208151819061130c90826157d0565b5060208201516001820180546040850151606086015160808701511515600160b01b0260ff60b01b19911515600160a81b029190911661ffff60a81b19921515600160a01b026001600160a81b03199094166001600160a01b039096169590951792909217169290921791909117905560a0820151600282019061139090826157d0565b5060c082015160038201906113a590826157d0565b5060e082015160048201906113ba90826157d0565b505050505050505050505050565b3360009081526020819052604090205460ff16806113f057506001546001600160a01b031633145b61140c5760405162461bcd60e51b815260040161060690615659565b6001600160a01b03851615801590611425575060008151115b8015611432575060008451115b801561143f575060008351115b6114835760405162461bcd60e51b8152602060048201526015602482015274656e74657220636f72726563742064657461696c7360581b6044820152606401610606565b6001600160a01b03808616600081815260086020526040902054909116146114bd5760405162461bcd60e51b8152600401610606906158df565b6040805160a0810182526001600160a01b0387811680835260208084018681528486018a9052606085018990526080850188905260009283526008909152939020825181546001600160a01b03191692169190911781559151909190600182019061152890826157d0565b506040820151600282019061153d90826157d0565b506060820151600382019061155290826157d0565b50608082015181600401559050505050505050565b6001600160a01b0381166000908152600560209081526040808320805482518185028101850190935280835260609492939192909184015b828210156116ff5783829060005260206000209060030201604051806060016040529081600082015481526020016001820180546115dc90615747565b80601f016020809104026020016040519081016040528092919081815260200182805461160890615747565b80156116555780601f1061162a57610100808354040283529160200191611655565b820191906000526020600020905b81548152906001019060200180831161163857829003601f168201915b5050505050815260200160028201805461166e90615747565b80601f016020809104026020016040519081016040528092919081815260200182805461169a90615747565b80156116e75780601f106116bc576101008083540402835291602001916116e7565b820191906000526020600020905b8154815290600101906020018083116116ca57829003601f168201915b5050505050815250508152602001906001019061159f565b505050509050919050565b3360009081526006602052604081205460ff1615611726575060015b3360009081526006602052604090205460ff166117555760405162461bcd60e51b8152600401610606906156df565b6001600160a01b03808916600081815260036020526040902060010154909116036117fb5760405162461bcd60e51b815260206004820152604a60248201527f50617469656e74206d65646963616c2064657461696c7320616c72656164792060448201527f657869737421212e204b696e646c792065646974207468652064657461696c73606482015269081a59881b995959195960b21b608482015260a401610606565b6001600160a01b0388166118215760405162461bcd60e51b815260040161060690615977565b60408051610100810182528a81526001600160a01b038a1660208083018290528a1515838501528915156060840152881515608084015260a0830188905260c0830187905260e08301869052600091825260039052919091208151819061188890826157d0565b5060208201516001820180546040850151606086015160808701511515600160b01b0260ff60b01b19911515600160a81b029190911661ffff60a81b19921515600160a01b026001600160a81b03199094166001600160a01b039096169590951792909217169290921791909117905560a0820151600282019061190c90826157d0565b5060c0820151600382019061192190826157d0565b5060e0820151600482019061193690826157d0565b5050506001600160a01b03808916600081815260026020819052604090912001549091160361197557600b805490600061196f83615a55565b91905055505b505050505050505050565b3360009081526020819052604090205460ff16806119a857506001546001600160a01b031633145b6119c45760405162461bcd60e51b815260040161060690615659565b3360009081526020819052604090205460ff16611a3a5760405162461bcd60e51b815260206004820152602e60248201527f4f6e6c79206f776e6572206861732070726976696c65676520746f206164642060448201526d6f776e657220616363657373212160901b6064820152608401610606565b6001600160a01b03811660009081526006602052604090205460ff1615611aa35760405162461bcd60e51b815260206004820181905260248201527f4164647265737320616c7265616479206861732061646d696e206163636573736044820152606401610606565b6001600160a01b038116611aeb5760405162461bcd60e51b815260206004820152600f60248201526e496e76616c6964204164647265737360881b6044820152606401610606565b6001600160a01b0381166000908152600660205260408120805460ff19166001179055600a805491611b1c83615a55565b919050555050565b60056020528160005260406000208181548110611b4057600080fd5b906000526020600020906003020160009150915050806000015490806001018054611b6a90615747565b80601f0160208091040260200160405190810160405280929190818152602001828054611b9690615747565b8015611be35780601f10611bb857610100808354040283529160200191611be3565b820191906000526020600020905b815481529060010190602001808311611bc657829003601f168201915b505050505090806002018054611bf890615747565b80601f0160208091040260200160405190810160405280929190818152602001828054611c2490615747565b8015611c715780601f10611c4657610100808354040283529160200191611c71565b820191906000526020600020905b815481529060010190602001808311611c5457829003601f168201915b5050505050905083565b6001546001600160a01b03163314611cd55760405162461bcd60e51b815260206004820152601f60248201527f41636365737365626c65206f6e6c7920666f722053757065724f776e657273006044820152606401610606565b6001600160a01b03166000908152602081905260409020805460ff19166001179055565b600760205260009081526040902080548190611d1490615747565b80601f0160208091040260200160405190810160405280929190818152602001828054611d4090615747565b8015611d8d5780601f10611d6257610100808354040283529160200191611d8d565b820191906000526020600020905b815481529060010190602001808311611d7057829003601f168201915b505050600184015460028501805494956001600160a01b03909216949193509150611db790615747565b80601f0160208091040260200160405190810160405280929190818152602001828054611de390615747565b8015611e305780601f10611e0557610100808354040283529160200191611e30565b820191906000526020600020905b815481529060010190602001808311611e1357829003601f168201915b505050505090806003015490806004015490806005018054611e5190615747565b80601f0160208091040260200160405190810160405280929190818152602001828054611e7d90615747565b8015611eca5780601f10611e9f57610100808354040283529160200191611eca565b820191906000526020600020905b815481529060010190602001808311611ead57829003601f168201915b5050505050905086565b6001600160a01b038082166000818152600260208190526040822001549092161480611f1d57506001600160a01b03808316600081815260036020526040902060010154909116145b92915050565b3360009081526020819052604090205460ff1680611f4b57506001546001600160a01b031633145b611f675760405162461bcd60e51b815260040161060690615659565b6001600160a01b0380861660008181526008602052604090205490911603611fe85760405162461bcd60e51b815260206004820152602e60248201527f50687973696369616e2050726f66657373696f6e616c2064657461696c73206160448201526d6c7265616479206578697374212160901b6064820152608401610606565b6001600160a01b0380861660008181526008602052604090205490911614801590612014575060008151115b8015612021575060008451115b801561202e575060008351115b6120725760405162461bcd60e51b8152602060048201526015602482015274456e74657220436f72726563742064657461696c7360581b6044820152606401610606565b6040805160a0810182526001600160a01b0387811680835260208084018681528486018a9052606085018990526080850188905260009283526008909152939020825181546001600160a01b0319169216919091178155915190919060018201906120dd90826157d0565b50604082015160028201906120f290826157d0565b506060820151600382019061210790826157d0565b50608091909101516004909101556001600160a01b03808616600081815260076020526040902060010154909116036121595761214385611980565b6009805490600061215383615a55565b91905055505b5050505050565b6000611f1d6301e1338083615a6e565b6001600160a01b03811660009081526006602052604081205460ff16156111f157506001919050565b3360009081526006602052604081205460ff16156121b5575060015b3360009081526006602052604090205460ff166121e45760405162461bcd60e51b8152600401610606906156df565b6001600160a01b03808b16600081815260026020819052604090912001549091160361228d5760405162461bcd60e51b815260206004820152604c60248201527f50617469656e742773204d65646963616c2064657461696c7320616c7265616460448201527f7920657869737421212e204b696e646c7920656469742074686520646574616960648201526b1b1cc81a59881b995959195960a21b608482015260a401610606565b6001600160a01b038a16158015906122a6575060008951115b80156122b3575060008851115b6122cf5760405162461bcd60e51b815260040161060690615977565b60008690506040518061016001604052808e81526020018d81526020018c6001600160a01b031681526020018b81526020018a815260200189815260200182815260200187815260200186815260200185815260200184815250600260008d6001600160a01b03166001600160a01b03168152602001908152602001600020600082015181600001908161236391906157d0565b506020820151600182019061237890826157d0565b5060408201516002820180546001600160a01b0319166001600160a01b03909216919091179055606082015160038201906123b390826157d0565b50608082015160048201906123c890826157d0565b5060a082015160058201906123dd90826157d0565b5060c0820151600682015560e08201516007820155610100820151600882019061240790826157d0565b50610120820151600982015561014090910151600a909101556001600160a01b03808c166000818152600360205260409020600101549091160361245b57600b805490600061245583615a55565b91905055505b50505050505050505050505050565b3360009081526020819052604090205460ff168061249257506001546001600160a01b031633145b6124ae5760405162461bcd60e51b815260040161060690615659565b6001600160a01b038086166000818152600760205260409020600101549091160361252d5760405162461bcd60e51b815260206004820152602960248201527f50687973696369616e20706572736f6e616c2064657461696c20616c7265616460448201526879206578697374212160b81b6064820152608401610606565b6001600160a01b038516158015906125455750600082115b8015612552575060008151115b801561255f575060008651115b61257b5760405162461bcd60e51b815260040161060690615890565b6040805160c0810182528781526001600160a01b0387166020808301829052828401889052606083018790526080830186905260a083018590526000918252600790529190912081518592919081906125d490826157d0565b5060208201516001820180546001600160a01b0319166001600160a01b039092169190911790556040820151600282019061260f90826157d0565b50606082015160038201556080820151600482015560a0820151600582019061263890826157d0565b5050506001600160a01b03808716600081815260086020526040902054909116036111bf5761266686611980565b6009805490600061267683615a55565b919050555050505050505050565b6126c66040518060c001604052806060815260200160006001600160a01b03168152602001606081526020016000815260200160008152602001606081525090565b3360009081526020819052604090205460ff16806126ee57506001546001600160a01b031633145b61270a5760405162461bcd60e51b815260040161060690615659565b6001600160a01b0382166127305760405162461bcd60e51b815260040161060690615a90565b6001600160a01b038083166000818152600760205260409020600101549091161461276d5760405162461bcd60e51b815260040161060690615ac7565b6001600160a01b03821660009081526007602052604090819020815160c0810190925280548290829061279f90615747565b80601f01602080910402602001604051908101604052809291908181526020018280546127cb90615747565b80156128185780601f106127ed57610100808354040283529160200191612818565b820191906000526020600020905b8154815290600101906020018083116127fb57829003601f168201915b505050918352505060018201546001600160a01b0316602082015260028201805460409092019161284890615747565b80601f016020809104026020016040519081016040528092919081815260200182805461287490615747565b80156128c15780601f10612896576101008083540402835291602001916128c1565b820191906000526020600020905b8154815290600101906020018083116128a457829003601f168201915b5050505050815260200160038201548152602001600482015481526020016005820180546128ee90615747565b80601f016020809104026020016040519081016040528092919081815260200182805461291a90615747565b80156129675780601f1061293c57610100808354040283529160200191612967565b820191906000526020600020905b81548152906001019060200180831161294a57829003601f168201915b5050505050815250509050919050565b33600081815260026020819052604090912001546060916001600160a01b0390911614806129be5750336000818152600360205260409020600101546001600160a01b0316145b806129d857503360009081526006602052604090205460ff165b806129f257503360009081526020819052604090205460ff165b80612a0757506001546001600160a01b031633145b612a235760405162461bcd60e51b815260040161060690615b70565b6001600160a01b038216600090815260046020908152604080832080548251818502810185019093528083529193909284015b828210156116ff57838290600052602060002090600b020160405180610160016040529081600082018054612a8a90615747565b80601f0160208091040260200160405190810160405280929190818152602001828054612ab690615747565b8015612b035780601f10612ad857610100808354040283529160200191612b03565b820191906000526020600020905b815481529060010190602001808311612ae657829003601f168201915b50505050508152602001600182018054612b1c90615747565b80601f0160208091040260200160405190810160405280929190818152602001828054612b4890615747565b8015612b955780601f10612b6a57610100808354040283529160200191612b95565b820191906000526020600020905b815481529060010190602001808311612b7857829003601f168201915b505050918352505060028201546001600160a01b0390811660208301526003830154166040820152600482018054606090920191612bd290615747565b80601f0160208091040260200160405190810160405280929190818152602001828054612bfe90615747565b8015612c4b5780601f10612c2057610100808354040283529160200191612c4b565b820191906000526020600020905b815481529060010190602001808311612c2e57829003601f168201915b50505050508152602001600582018054612c6490615747565b80601f0160208091040260200160405190810160405280929190818152602001828054612c9090615747565b8015612cdd5780601f10612cb257610100808354040283529160200191612cdd565b820191906000526020600020905b815481529060010190602001808311612cc057829003601f168201915b50505050508152602001600682018054612cf690615747565b80601f0160208091040260200160405190810160405280929190818152602001828054612d2290615747565b8015612d6f5780601f10612d4457610100808354040283529160200191612d6f565b820191906000526020600020905b815481529060010190602001808311612d5257829003601f168201915b50505050508152602001600782018054612d8890615747565b80601f0160208091040260200160405190810160405280929190818152602001828054612db490615747565b8015612e015780601f10612dd657610100808354040283529160200191612e01565b820191906000526020600020905b815481529060010190602001808311612de457829003601f168201915b50505050508152602001600882018054612e1a90615747565b80601f0160208091040260200160405190810160405280929190818152602001828054612e4690615747565b8015612e935780601f10612e6857610100808354040283529160200191612e93565b820191906000526020600020905b815481529060010190602001808311612e7657829003601f168201915b50505050508152602001600982018054612eac90615747565b80601f0160208091040260200160405190810160405280929190818152602001828054612ed890615747565b8015612f255780601f10612efa57610100808354040283529160200191612f25565b820191906000526020600020905b815481529060010190602001808311612f0857829003601f168201915b50505050508152602001600a82018054612f3e90615747565b80601f0160208091040260200160405190810160405280929190818152602001828054612f6a90615747565b8015612fb75780601f10612f8c57610100808354040283529160200191612fb7565b820191906000526020600020905b815481529060010190602001808311612f9a57829003601f168201915b50505050508152505081526020019060010190612a56565b600860205260009081526040902080546001820180546001600160a01b039092169291612ffb90615747565b80601f016020809104026020016040519081016040528092919081815260200182805461302790615747565b80156130745780601f1061304957610100808354040283529160200191613074565b820191906000526020600020905b81548152906001019060200180831161305757829003601f168201915b50505050509080600201805461308990615747565b80601f01602080910402602001604051908101604052809291908181526020018280546130b590615747565b80156131025780601f106130d757610100808354040283529160200191613102565b820191906000526020600020905b8154815290600101906020018083116130e557829003601f168201915b50505050509080600301805461311790615747565b80601f016020809104026020016040519081016040528092919081815260200182805461314390615747565b80156131905780601f1061316557610100808354040283529160200191613190565b820191906000526020600020905b81548152906001019060200180831161317357829003601f168201915b5050505050908060040154905085565b3360009081526006602052604081205460ff16156131bc575060015b3360009081526006602052604090205460ff166131eb5760405162461bcd60e51b8152600401610606906156df565b6001600160a01b038a1615801590613204575060008951115b8015613211575060008851115b61322d5760405162461bcd60e51b815260040161060690615977565b6001600160a01b03808b16600081815260026020819052604090912001549091161461326b5760405162461bcd60e51b8152600401610606906159bd565b60008690506040518061016001604052808e81526020018d81526020018c6001600160a01b031681526020018b81526020018a815260200189815260200182815260200187815260200186815260200185815260200184815250600260008d6001600160a01b03166001600160a01b0316815260200190815260200160002060008201518160000190816132ff91906157d0565b506020820151600182019061331490826157d0565b5060408201516002820180546001600160a01b0319166001600160a01b039092169190911790556060820151600382019061334f90826157d0565b506080820151600482019061336490826157d0565b5060a0820151600582019061337990826157d0565b5060c0820151600682015560e0820151600782015561010082015160088201906133a390826157d0565b50610120820151600982015561014090910151600a9091015550505050505050505050505050565b613431604051806101600160405280606081526020016060815260200160006001600160a01b0316815260200160608152602001606081526020016060815260200160008152602001600081526020016060815260200160008152602001600081525090565b6134886040518061010001604052806060815260200160006001600160a01b031681526020016000151581526020016000151581526020016000151581526020016060815260200160608152602001606081525090565b33600081815260026020819052604090912001546001600160a01b031614806134ca5750336000818152600360205260409020600101546001600160a01b0316145b806134e457503360009081526006602052604090205460ff165b806134fe57503360009081526020819052604090205460ff165b8061351357506001546001600160a01b031633145b61352f5760405162461bcd60e51b815260040161060690615b70565b6001600160a01b0383166135555760405162461bcd60e51b815260040161060690615a90565b6001600160a01b03808416600081815260026020819052604090912001549091161480156135a057506001600160a01b03808416600081815260036020526040902060010154909116145b61365e5760405162461bcd60e51b815260206004820152607960248201527f496e636f72726563742050617469656e742077616c6c6574206164647265737360448201527f206f72205468652050617469656e742064657461696c20666f7220746865206160648201527f6464726573732070726f7669646564206973206e6f7420636f6d706c65746c7960848201527f20617661696c61626c6520696e2074686520636861696e21210000000000000060a482015260c401610606565b6001600160a01b0383166000908152600260209081526040808320600390925291829020825161016081019093528154919290918390829082906136a190615747565b80601f01602080910402602001604051908101604052809291908181526020018280546136cd90615747565b801561371a5780601f106136ef5761010080835404028352916020019161371a565b820191906000526020600020905b8154815290600101906020018083116136fd57829003601f168201915b5050505050815260200160018201805461373390615747565b80601f016020809104026020016040519081016040528092919081815260200182805461375f90615747565b80156137ac5780601f10613781576101008083540402835291602001916137ac565b820191906000526020600020905b81548152906001019060200180831161378f57829003601f168201915b505050918352505060028201546001600160a01b031660208201526003820180546040909201916137dc90615747565b80601f016020809104026020016040519081016040528092919081815260200182805461380890615747565b80156138555780601f1061382a57610100808354040283529160200191613855565b820191906000526020600020905b81548152906001019060200180831161383857829003601f168201915b5050505050815260200160048201805461386e90615747565b80601f016020809104026020016040519081016040528092919081815260200182805461389a90615747565b80156138e75780601f106138bc576101008083540402835291602001916138e7565b820191906000526020600020905b8154815290600101906020018083116138ca57829003601f168201915b5050505050815260200160058201805461390090615747565b80601f016020809104026020016040519081016040528092919081815260200182805461392c90615747565b80156139795780601f1061394e57610100808354040283529160200191613979565b820191906000526020600020905b81548152906001019060200180831161395c57829003601f168201915b5050505050815260200160068201548152602001600782015481526020016008820180546139a690615747565b80601f01602080910402602001604051908101604052809291908181526020018280546139d290615747565b8015613a1f5780601f106139f457610100808354040283529160200191613a1f565b820191906000526020600020905b815481529060010190602001808311613a0257829003601f168201915b5050505050815260200160098201548152602001600a8201548152505091508060405180610100016040529081600082018054613a5b90615747565b80601f0160208091040260200160405190810160405280929190818152602001828054613a8790615747565b8015613ad45780601f10613aa957610100808354040283529160200191613ad4565b820191906000526020600020905b815481529060010190602001808311613ab757829003601f168201915b505050918352505060018201546001600160a01b038116602083015260ff600160a01b8204811615156040840152600160a81b8204811615156060840152600160b01b909104161515608082015260028201805460a090920191613b3790615747565b80601f0160208091040260200160405190810160405280929190818152602001828054613b6390615747565b8015613bb05780601f10613b8557610100808354040283529160200191613bb0565b820191906000526020600020905b815481529060010190602001808311613b9357829003601f168201915b50505050508152602001600382018054613bc990615747565b80601f0160208091040260200160405190810160405280929190818152602001828054613bf590615747565b8015613c425780601f10613c1757610100808354040283529160200191613c42565b820191906000526020600020905b815481529060010190602001808311613c2557829003601f168201915b50505050508152602001600482018054613c5b90615747565b80601f0160208091040260200160405190810160405280929190818152602001828054613c8790615747565b8015613cd45780601f10613ca957610100808354040283529160200191613cd4565b820191906000526020600020905b815481529060010190602001808311613cb757829003601f168201915b505050505081525050905091509150915091565b600360205260009081526040902080548190613d0390615747565b80601f0160208091040260200160405190810160405280929190818152602001828054613d2f90615747565b8015613d7c5780601f10613d5157610100808354040283529160200191613d7c565b820191906000526020600020905b815481529060010190602001808311613d5f57829003601f168201915b50505050600183015460028401805493946001600160a01b0383169460ff600160a01b850481169550600160a81b8504811694600160b01b9004169290613dc290615747565b80601f0160208091040260200160405190810160405280929190818152602001828054613dee90615747565b8015613e3b5780601f10613e1057610100808354040283529160200191613e3b565b820191906000526020600020905b815481529060010190602001808311613e1e57829003601f168201915b505050505090806003018054613e5090615747565b80601f0160208091040260200160405190810160405280929190818152602001828054613e7c90615747565b8015613ec95780601f10613e9e57610100808354040283529160200191613ec9565b820191906000526020600020905b815481529060010190602001808311613eac57829003601f168201915b505050505090806004018054613ede90615747565b80601f0160208091040260200160405190810160405280929190818152602001828054613f0a90615747565b8015613f575780601f10613f2c57610100808354040283529160200191613f57565b820191906000526020600020905b815481529060010190602001808311613f3a57829003601f168201915b5050505050905088565b613f9c6040518060a0016040528060006001600160a01b03168152602001606081526020016060815260200160608152602001600081525090565b3360009081526020819052604090205460ff1680613fc457506001546001600160a01b031633145b613fe05760405162461bcd60e51b815260040161060690615659565b6001600160a01b0382166140065760405162461bcd60e51b815260040161060690615a90565b6001600160a01b03808316600081815260086020526040902054909116146140405760405162461bcd60e51b815260040161060690615ac7565b6001600160a01b03808316600090815260086020908152604091829020825160a08101909352805490931682526001830180549293929184019161408390615747565b80601f01602080910402602001604051908101604052809291908181526020018280546140af90615747565b80156140fc5780601f106140d1576101008083540402835291602001916140fc565b820191906000526020600020905b8154815290600101906020018083116140df57829003601f168201915b5050505050815260200160028201805461411590615747565b80601f016020809104026020016040519081016040528092919081815260200182805461414190615747565b801561418e5780601f106141635761010080835404028352916020019161418e565b820191906000526020600020905b81548152906001019060200180831161417157829003601f168201915b505050505081526020016003820180546141a790615747565b80601f01602080910402602001604051908101604052809291908181526020018280546141d390615747565b80156142205780601f106141f557610100808354040283529160200191614220565b820191906000526020600020905b81548152906001019060200180831161420357829003601f168201915b505050505081526020016004820154815250509050919050565b6004602052816000526040600020818154811061425657600080fd5b90600052602060002090600b02016000915091505080600001805461427a90615747565b80601f01602080910402602001604051908101604052809291908181526020018280546142a690615747565b80156142f35780601f106142c8576101008083540402835291602001916142f3565b820191906000526020600020905b8154815290600101906020018083116142d657829003601f168201915b50505050509080600101805461430890615747565b80601f016020809104026020016040519081016040528092919081815260200182805461433490615747565b80156143815780601f1061435657610100808354040283529160200191614381565b820191906000526020600020905b81548152906001019060200180831161436457829003601f168201915b5050506002840154600385015460048601805495966001600160a01b03938416969290931694509192506143b490615747565b80601f01602080910402602001604051908101604052809291908181526020018280546143e090615747565b801561442d5780601f106144025761010080835404028352916020019161442d565b820191906000526020600020905b81548152906001019060200180831161441057829003601f168201915b50505050509080600501805461444290615747565b80601f016020809104026020016040519081016040528092919081815260200182805461446e90615747565b80156144bb5780601f10614490576101008083540402835291602001916144bb565b820191906000526020600020905b81548152906001019060200180831161449e57829003601f168201915b5050505050908060060180546144d090615747565b80601f01602080910402602001604051908101604052809291908181526020018280546144fc90615747565b80156145495780601f1061451e57610100808354040283529160200191614549565b820191906000526020600020905b81548152906001019060200180831161452c57829003601f168201915b50505050509080600701805461455e90615747565b80601f016020809104026020016040519081016040528092919081815260200182805461458a90615747565b80156145d75780601f106145ac576101008083540402835291602001916145d7565b820191906000526020600020905b8154815290600101906020018083116145ba57829003601f168201915b5050505050908060080180546145ec90615747565b80601f016020809104026020016040519081016040528092919081815260200182805461461890615747565b80156146655780601f1061463a57610100808354040283529160200191614665565b820191906000526020600020905b81548152906001019060200180831161464857829003601f168201915b50505050509080600901805461467a90615747565b80601f01602080910402602001604051908101604052809291908181526020018280546146a690615747565b80156146f35780601f106146c8576101008083540402835291602001916146f3565b820191906000526020600020905b8154815290600101906020018083116146d657829003601f168201915b50505050509080600a01805461470890615747565b80601f016020809104026020016040519081016040528092919081815260200182805461473490615747565b80156147815780601f1061475657610100808354040283529160200191614781565b820191906000526020600020905b81548152906001019060200180831161476457829003601f168201915b505050505090508b565b80356001600160a01b03811681146111f157600080fd5b6000602082840312156147b457600080fd5b6107a88261478b565b6000602082840312156147cf57600080fd5b5035919050565b634e487b7160e01b600052604160045260246000fd5b600082601f8301126147fd57600080fd5b813567ffffffffffffffff80821115614818576148186147d6565b604051601f8301601f19908116603f01168101908282118183101715614840576148406147d6565b8160405283815286602085880101111561485957600080fd5b836020870160208301376000602085830101528094505050505092915050565b60008060008060008060008060008060006101608c8e03121561489b57600080fd5b67ffffffffffffffff808d3511156148b257600080fd5b6148bf8e8e358f016147ec565b9b508060208e013511156148d257600080fd5b6148e28e60208f01358f016147ec565b9a506148f060408e0161478b565b99506148fe60608e0161478b565b98508060808e0135111561491157600080fd5b6149218e60808f01358f016147ec565b97508060a08e0135111561493457600080fd5b6149448e60a08f01358f016147ec565b96508060c08e0135111561495757600080fd5b6149678e60c08f01358f016147ec565b95508060e08e0135111561497a57600080fd5b61498a8e60e08f01358f016147ec565b9450806101008e0135111561499e57600080fd5b6149af8e6101008f01358f016147ec565b9350806101208e013511156149c357600080fd5b6149d48e6101208f01358f016147ec565b9250806101408e013511156149e857600080fd5b506149fa8d6101408e01358e016147ec565b90509295989b509295989b9093969950565b60008060008060008060c08789031215614a2557600080fd5b863567ffffffffffffffff80821115614a3d57600080fd5b614a498a838b016147ec565b9750614a5760208a0161478b565b96506040890135915080821115614a6d57600080fd5b614a798a838b016147ec565b9550606089013594506080890135935060a0890135915080821115614a9d57600080fd5b50614aaa89828a016147ec565b9150509295509295509295565b6000815180845260005b81811015614add57602081850181015186830182015201614ac1565b506000602082860101526020601f19601f83011685010191505092915050565b6000610160808352614b118184018f614ab7565b90508281036020840152614b25818e614ab7565b6001600160a01b038d16604085015283810360608501529050614b48818c614ab7565b90508281036080840152614b5c818b614ab7565b905082810360a0840152614b70818a614ab7565b90508760c08401528660e0840152828103610100840152614b918187614ab7565b610120840195909552505061014001529998505050505050505050565b600080600060608486031215614bc357600080fd5b833567ffffffffffffffff80821115614bdb57600080fd5b614be7878388016147ec565b9450614bf56020870161478b565b93506040860135915080821115614c0b57600080fd5b50614c18868287016147ec565b9150509250925092565b803580151581146111f157600080fd5b600080600080600080600080610100898b031215614c4f57600080fd5b883567ffffffffffffffff80821115614c6757600080fd5b614c738c838d016147ec565b9950614c8160208c0161478b565b9850614c8f60408c01614c22565b9750614c9d60608c01614c22565b9650614cab60808c01614c22565b955060a08b0135915080821115614cc157600080fd5b614ccd8c838d016147ec565b945060c08b0135915080821115614ce357600080fd5b614cef8c838d016147ec565b935060e08b0135915080821115614d0557600080fd5b50614d128b828c016147ec565b9150509295985092959890939650565b600080600080600060a08688031215614d3a57600080fd5b614d438661478b565b9450602086013567ffffffffffffffff80821115614d6057600080fd5b614d6c89838a016147ec565b95506040880135915080821115614d8257600080fd5b614d8e89838a016147ec565b9450606088013593506080880135915080821115614dab57600080fd5b50614db8888289016147ec565b9150509295509295909350565b60006020808301818452808551808352604092508286019150828160051b87010184880160005b83811015614e4857603f19898403018552815160608151855288820151818a870152614e1a82870182614ab7565b91505087820151915084810388860152614e348183614ab7565b968901969450505090860190600101614dec565b509098975050505050505050565b60008060408385031215614e6957600080fd5b614e728361478b565b946020939093013593505050565b838152606060208201526000614e996060830185614ab7565b8281036040840152614eab8185614ab7565b9695505050505050565b60c081526000614ec860c0830189614ab7565b6001600160a01b03881660208401528281036040840152614ee98188614ab7565b905085606084015284608084015282810360a0840152614f098185614ab7565b9998505050505050505050565b60008060008060008060008060008060006101608c8e031215614f3857600080fd5b67ffffffffffffffff808d351115614f4f57600080fd5b614f5c8e8e358f016147ec565b9b508060208e01351115614f6f57600080fd5b614f7f8e60208f01358f016147ec565b9a50614f8d60408e0161478b565b99508060608e01351115614fa057600080fd5b614fb08e60608f01358f016147ec565b98508060808e01351115614fc357600080fd5b614fd38e60808f01358f016147ec565b97508060a08e01351115614fe657600080fd5b614ff68e60a08f01358f016147ec565b965060c08d0135955060e08d01359450806101008e0135111561501857600080fd5b5061502a8d6101008e01358e016147ec565b92506101208c013591506101408c013590509295989b509295989b9093969950565b602081526000825160c0602084015261506860e0840182614ab7565b905060018060a01b0360208501511660408401526040840151601f19808584030160608601526150988383614ab7565b925060608601516080860152608086015160a086015260a08601519150808584030160c0860152506150ca8282614ab7565b95945050505050565b60006020808301818452808551808352604092508286019150828160051b87010184880160005b83811015614e4857603f198984030185528151610160815181865261512182870182614ab7565b915050888201518582038a8701526151398282614ab7565b91505087820151615154898701826001600160a01b03169052565b506060828101516001600160a01b0316908601526080808301518683038288015261517f8382614ab7565b9250505060a0808301518683038288015261519a8382614ab7565b9250505060c080830151868303828801526151b58382614ab7565b9250505060e080830151868303828801526151d08382614ab7565b9250505061010080830151868303828801526151ec8382614ab7565b9250505061012080830151868303828801526152088382614ab7565b9250505061014080830151925085820381870152506152278183614ab7565b9689019694505050908601906001016150fa565b6001600160a01b038616815260a06020820181905260009061525f90830187614ab7565b82810360408401526152718187614ab7565b905082810360608401526152858186614ab7565b9150508260808301529695505050505050565b600061010082518185526152ae82860182614ab7565b91505060208301516152cb60208601826001600160a01b03169052565b5060408301516152df604086018215159052565b5060608301516152f3606086018215159052565b506080830151615307608086018215159052565b5060a083015184820360a086015261531f8282614ab7565b91505060c083015184820360c08601526153398282614ab7565b91505060e083015184820360e08601526150ca8282614ab7565b60408152600083516101608060408501526153726101a0850183614ab7565b91506020860151603f19808685030160608701526153908483614ab7565b9350604088015191506153ae60808701836001600160a01b03169052565b60608801519150808685030160a08701526153c98483614ab7565b935060808801519150808685030160c08701526153e68483614ab7565b935060a08801519150808685030160e08701526154038483614ab7565b935060c08801519150610100828188015260e089015192506101208381890152818a0151935061014091508288870301828901526154418685614ab7565b908a0151948801949094528801516101808701525050838103602085015290506150ca8185615298565b600061010080835261547f8184018c614ab7565b6001600160a01b038b16602085015289151560408501528815156060850152871515608085015283810360a085015290506154ba8187614ab7565b905082810360c08401526154ce8186614ab7565b905082810360e08401526154e28185614ab7565b9b9a5050505050505050505050565b602080825282516001600160a01b03168282015282015160a0604083015260009061551f60c0840182614ab7565b90506040840151601f198085840301606086015261553d8383614ab7565b925060608601519150808584030160808601525061555b8282614ab7565b915050608084015160a08401528091505092915050565b60006101608083526155868184018f614ab7565b9050828103602084015261559a818e614ab7565b6001600160a01b038d16604085015290506001600160a01b038b16606084015282810360808401526155cc818b614ab7565b905082810360a08401526155e0818a614ab7565b905082810360c08401526155f48189614ab7565b905082810360e08401526156088188614ab7565b905082810361010084015261561d8187614ab7565b90508281036101208401526156328186614ab7565b90508281036101408401526156478185614ab7565b9e9d5050505050505050505050505050565b6020808252602a908201527f41636365737365626c65206f6e6c7920666f72204f776e65727320616e642053604082015269757065724f776e65727360b01b606082015260800190565b634e487b7160e01b600052601160045260246000fd5b80820180821115611f1d57611f1d6156a3565b81810381811115611f1d57611f1d6156a3565b60208082526042908201527f4f6e6c792074686520446f63746f72732063616e2063616c6c2074686973206660408201527f756e6374696f6e2064756520746f20736563757269747920726561736f6e7321606082015261212160f01b608082015260a00190565b600181811c9082168061575b57607f821691505b60208210810361577b57634e487b7160e01b600052602260045260246000fd5b50919050565b601f8211156157cb57600081815260208120601f850160051c810160208610156157a85750805b601f850160051c820191505b818110156157c7578281556001016157b4565b5050505b505050565b815167ffffffffffffffff8111156157ea576157ea6147d6565b6157fe816157f88454615747565b84615781565b602080601f831160018114615833576000841561581b5750858301515b600019600386901b1c1916600185901b1785556157c7565b600085815260208120601f198616915b8281101561586257888601518255948401946001909101908401615843565b50858210156158805787850151600019600388901b60f8161c191681555b5050505050600190811b01905550565b6020808252602f908201527f4b696e646c792066696c6c20616c6c20746865206d616e6461746f727920666560408201526e696c64732070726f7065726c79212160881b606082015260800190565b6020808252606c908201527f496e636f727265637420446f63746f7227732077616c6c65742061646472657360408201527f73206f722054686520446f63746f722064657461696c20666f7220746865206160608201527f6464726573732070726f7669646564206e6f7420617661696c61626c6520696e60808201526b2074686520636861696e212160a01b60a082015260c00190565b60208082526026908201527f4b696e646c792066696c6c20616c6c20746865206d616e6461746f7279206665604082015265696c6473212160d01b606082015260800190565b6020808252606c908201527f496e636f72726563742050617469656e742077616c6c6574206164647265737360408201527f206f72205468652050617469656e742064657461696c20666f7220746865206160608201527f6464726573732070726f7669646564206e6f7420617661696c61626c6520696e60808201526b2074686520636861696e212160a01b60a082015260c00190565b600060018201615a6757615a676156a3565b5060010190565b600082615a8b57634e487b7160e01b600052601260045260246000fd5b500490565b6020808252601e908201527f57616c6c657420416464726573732063616e6e6f7420626520656d7074790000604082015260600190565b60208082526078908201527f496e636f727265637420446f63746f722077616c6c657420616464726573732060408201527f6f722054686520446f63746f722064657461696c20666f72207468652061646460608201527f726573732070726f7669646564206973206e6f7420636f6d706c6574656c792060808201527f617661696c61626c6520696e2074686520636861696e2121000000000000000060a082015260c00190565b60208082526027908201527f596f752068617665206e6f2061636365737320746f206665746368207468652060408201526664657461696c7360c81b60608201526080019056fea264697066735822122060baf85793fb8041748cda32895f0137940ac2b309f96b42e883a6bec7ee084464736f6c63430008150033",
  "linkReferences": {},
  "deployedLinkReferences": {}
}